:060000000A128A110E280D
:10000800FE00030EF8000408F9000A08FA000A12B4
:100018008A11C8290A128A1111280A128A151C275E
:100028000A128A11D9000A128A151D270A128A1182
:10003800DA000A128A151E270A128A11DB000A1230
:100048008A151F270A128A11DC000A128A11FE2754
:100058000A128A11FD008313203084003E300A12F0
:100068008A154D270A128A11FB01FC0183010A1225
:100078008A113E280A128A11C1260A128A1183128D
:100088000313C101C10A01300A128A11D8270A12C2
:100098008A1101300A128A1188270A128A118312DA
:1000A80003133D08D500D6015508AD005608AE002B
:1000B8003C08D500D6012D08D800D70155085704AB
:1000C800AD0056085804AE003B08D500D6012D08EF
:1000D800D800D70155085704AD0056085804AE009B
:1000E8003A08D500D6012D08D800D701550857047D
:1000F800A50056085804A600A701A8012808CF00A3
:100108002708CE002608CD002508CC000A128A113F
:1001180048230A128A11831203133908D500D6011D
:100128005508C7005608C8000A128A11C8250A12BD
:100138008A117C080F39303E83120313D500550805
:10014800B5007C08D50004300310D50CFF3E031D14
:10015800A8285508303ED6005608B60038080F398A
:10016800303ED5005508B3003808D50004300310D8
:10017800D50CFF3E031DBB285508303ED600560857
:10018800B40037080F39303ED5005508B20037089B
:10019800D50004300310D50CFF3E031DCE285508AA
:1001A800303ED6005608B100C101C10A02300A1219
:1001B8008A11D8270A128A11831203132908031DEA
:1001C800E628E728EE2820300A128A1188270A1222
:1001D8008A11F5282908303E0A128A159B270A1227
:1001E8008A11831203132A08303E0A128A159B27A4
:1001F8000A128A11831203132B08303E0A128A1539
:100208009B270A128A1143300A128A159B270A1261
:100218008A1120300A128A1188270A128A11831239
:100228000313250A031D1E29260A27042804031D73
:100238001E291F2926291A300A128A1188270A120C
:100248008A115329831203132008303E0A128A1593
:100258009B270A128A11831203132108303E0A12BF
:100268008A159B270A128A11831203132208303E2B
:100278000A128A159B270A128A118312031323086C
:10028800303E0A128A159B270A128A118312031319
:100298002408303E0A128A159B270A128A11203038
:1002A8000A128A1188270A128A1183120313310845
:1002B8000A128A159B270A128A118312031332081D
:1002C8000A128A159B270A128A113A300A128A15CD
:1002D8009B270A128A118312031334080A128A15FB
:1002E8009B270A128A118312031333080A128A15EC
:1002F8009B270A128A113A300A128A159B270A127A
:100308008A118312031336080A128A159B270A12C8
:100318008A118312031335080A128A159B270A12B9
:100328008A11831203133003031D9B299C29532828
:100338005A080319A029A129B0290A128A153F27AA
:100348000A128A11013083120313DA02B001043051
:10035800D5005508D900532859080319B429B529D7
:10036800C0290A128A1546270A128A1101308312F7
:100378000313D902B00153280430D5005508DA0018
:1003880053280A128A110E280B1DCB29CC29512A71
:100398000A128A1526270A128A11831203135C0887
:1003A800031DD729D829EE2939307D020318DD2904
:1003B800DE29E3290130F6007608FD07E729303009
:1003C800F6007608FD007D0899000A30F6007608E8
:1003D800DC00F0290130DC025B08031DF429F52953
:1003E800FC29B001B00A3230F6007608DB00FE299D
:1003F8000130DB020130F6007608AF0704302F0227
:10040800031C072A082A092AAF0132303306031DC4
:100418000E2A0F2A1A2A86170130F4000030F50038
:100428000A128A15CC270A128A11232A8613003049
:10043800F400F5000A128A15CC270A128A11323004
:10044800831203133306031D2A2A2B2A3F2B3A2A29
:10045800013086003F2B023086003F2B0430860097
:100468003F2B083086003F2B86013F2B2F08F600D4
:10047800F7017708003A0319422A382A7608003A21
:1004880003192C2A013A03192F2A033A0319322A8D
:10049800013A0319352A382A3F2B831203138C1E7D
:1004A800562A572AAF2A31307D06031D5C2A5D2A59
:1004B800622A1A08F6007608BD003F2B32307D0606
:1004C800031D672A682A6D2A1A08F6007608BC00F8
:1004D8003F2B33307D06031D722A732A782A1A08A7
:1004E800F6007608BB003F2B34307D06031D7D2ABD
:1004F8007E2A832A1A08F6007608BA003F2B353080
:100508007D06031D882A892A8E2A1A08F60076088D
:10051800B9003F2B36307D06031D932A942A992A69
:100528001A08F6007608FC003F2B37307D06031DBD
:100538009E2A9F2AA42A1A08F6007608B8003F2B9C
:1005480038307D06031DA92AAA2A502A1A08F6005F
:100558007608B7003F2B0A128A155E270A128A11FD
:10056800700871040319B92ABA2A502A0A128A157E
:1005780055270A128A11F6007608FB007B0A031930
:10058800C62AC72A3C2B08307B06031DCC2ACD2A55
:10059800D62A831203133D080A128A1520270A1245
:1005A8008A113C2B7B03031DDA2ADB2AE42A8312F7
:1005B80003133C080A128A1520270A128A113C2BB9
:1005C80002307B06031DE92AEA2AF32A8312031361
:1005D8003B080A128A1520270A128A113C2B03307D
:1005E8007B06031DF82AF92A022B831203133A0803
:1005F8000A128A1520270A128A113C2B04307B061E
:10060800031D072B082B112B8312031339080A1219
:100618008A1520270A128A113C2B05307B06031DF8
:10062800162B172B1E2B7C080A128A1520270A1254
:100638008A113C2B06307B06031D232B242B2D2BE4
:100648008312031338080A128A1520270A128A11FE
:100658003C2B07307B06031D322B332B3C2B83129C
:10066800031337080A128A1520270A128A113C2B0D
:10067800831203138C117A088A0079088400780E93
:100688008300FE0E7E0E0900003083120313C100A2
:100698000030C0002730BF001030BE004F08C50032
:1006A8004E08C4004D08C3004C08C2000A128A1143
:1006B800A0240A128A11831203133E08D00050089E
:1006C800A0000030C1000030C0002730BF0010304B
:1006D800BE004F08C5004E08C4004D08C3004C08B2
:1006E800C2000A128A1121260A128A1183120313E0
:1006F8004108D4004008D3003F08D2003E08D1008A
:100708000030C1000030C0000330BF00E830BE0038
:100718005408C5005308C4005208C3005108C20059
:100728000A128A11A0240A128A11831203133E089E
:10073800D0005008A1000030C1000030C0000330D4
:10074800BF00E830BE005408C5005308C400520872
:10075800C3005108C2000A128A1121260A128A11FE
:10076800831203134108D4004008D3003F08D20085
:100778003E08D1000030C1000030C0000030BF008A
:100788006430BE005408C5005308C4005208C300B2
:100798005108C2000A128A11A0240A128A1183126F
:1007A80003133E08D0005008A2000030C1000030FA
:1007B800C0000030BF006430BE005408C5005308B4
:1007C800C4005208C3005108C2000A128A11212627
:1007D8000A128A11831203134108D4004008D30077
:1007E8003F08D2003E08D1000030C1000030C000F0
:1007F8000030BF000A30BE005408C5005308C400CA
:100808005208C3005108C2000A128A11A0240A1211
:100818008A11831203133E08D0005008A300003049
:10082800C1000030C0000030BF000A30BE005408CC
:10083800C5005308C4005208C3005108C2000A1278
:100848008A1121260A128A11831203134108D4003F
:100858004008D3003F08D2003E08D1005108D0001C
:100868005008A400080083120313C401BF1F3D2CC5
:100878003E2C452CBE09BF09BE0A0319BF0AC40194
:10088800C40AC11F482C492C522CC009C109C00AEE
:100898000319C10A0130C2004208C406C501C601D5
:1008A8003E083F040319592C5A2C912CC301C30A42
:1008B800682C01300310BE0DBF0DFF3E031D5E2CDA
:1008C8000130C2004208C307BF1F6B2C6C2C5D2C83
:1008D80001300310C50DC60DFF3E031D6D2C3F08EA
:1008E8004102031D792C3E084002031C7C2C7D2C00
:1008F800842C3E08C0023F08031CC103C1024514F2
:1009080001300310BF0CBE0CFF3E031D852C0130C7
:10091800C302031D902C912C6C2C44080319952CB0
:10092800962C9B2CC509C609C50A0319C60A460890
:10093800BF004508BE000800003083120313CA0038
:100948000030C9000030C8000030C700410840042A
:100958003F043E040319B12CB22CFF2CCB01CB0A67
:10096800C22C0130C6000310BE0DBF0DC00DC10D55
:10097800C60BB72C0130C6004608CB07C11FC52CD3
:10098800C62CB52C0130C6000310C70DC80DC90D03
:10099800CA0DC60BC82C41084502031DDD2C4008B2
:1009A8004402031DDD2C3F084302031DDD2C3E08D5
:1009B8004202031CE02CE12CF02C3E08C2023F0846
:1009C800031C3F0FC3024008031C400FC402410828
:1009D800031C410FC502471401300310C10CC00CA1
:1009E800BF0CBE0CFF3E031DF12C0130CB02031DD2
:1009F800FE2CFF2CC62C4A08C1004908C000480834
:100A0800BF004708BE00080083120313C0008B16FE
:100A180083160313811181120112482D83160313C3
:100A28000111811001106C2D83160313011181101F
:100A380001146C2D831603130111811401106C2D00
:100A4800831603130111811401146C2D83160313EB
:100A58000115811001106C2D8316031301158110E7
:100A680001146C2D831603130115811401106C2DCC
:100A7800831603130115811401146C2D83160313B7
:100A88000115811401146C2D831203134008BE0054
:100A9800BF013F08003A0319522D422D3E08003A83
:100AA8000319122D013A0319182D033A03191E2DA3
:100AB800013A0319242D073A03192A2D013A03197B
:100AC800302D033A0319362D013A03193C2D422DD6
:100AD800080083120313C401C11F732D742D7B2DCD
:100AE800C009C109C00A0319C10AC401C40ABF1F49
:100AF8007E2D7F2D842DBE09BF09BE0A0319BF0AAA
:100B08003E083F040319892D8A2DB92DC301C30A54
:100B1800982D01300310BE0DBF0DFF3E031D8E2D15
:100B28000130C2004208C307BF1F9B2D9C2D8D2D8D
:100B38003F084102031DA22D3E084002031CA52DBB
:100B4800A62DAC2D3E08C0023F08031CC103C102FC
:100B580001300310BF0CBE0CFF3E031DAD2D01304C
:100B6800C302031DB82DB92D9C2D44080319BD2DB2
:100B7800BE2DC32DC009C109C00A0319C10A410805
:100B8800BF004008BE000800643083120313BE0093
:100B98000030BF004808C1004708C0000A128A1187
:100BA80037240A128A11831203133E08C900490820
:100BB800A9006430BE000030BF004808C1004708E3
:100BC800C0000A128A116D250A128A1183120313B2
:100BD8003E08C9004908AC000A30BE000030BF001A
:100BE8002C08C900CA014908C0004A08C1000A12F5
:100BF8008A1137240A128A11831203133E08CB0084
:100C08004B08AA000A30BE000030BF002C08C900FB
:100C1800CA014908C0004A08C1000A128A116D2594
:100C28000A128A11831203133E08CB004B08AC004A
:100C38002C08C9004908AB000800831203134108B7
:100C480040043F043E0403192A2E2B2E6E2EC701A2
:100C5800C70A3B2E0130C6000310BE0DBF0DC00DE4
:100C6800C10DC60B302E0130C6004608C707C11F8C
:100C78003E2E3F2E2E2E41084502031D4D2E4008C4
:100C88004402031D4D2E3F084302031D4D2E3E080E
:100C98004202031C502E512E5F2E3E08C2023F080E
:100CA800031C3F0FC3024008031C400FC402410845
:100CB800031C410FC50201300310C10CC00CBF0C4E
:100CC800BE0CFF3E031D602E0130C702031D6D2EB2
:100CD8006E2E3F2E4508C1004408C0004308BF00DF
:100CE8004208BE00080000300A128A152C270A1292
:100CF8008A11073083120313C2007C30C100C10B74
:100D0800832EC20B832E000030300A128A15B327B7
:100D18000A128A11F93083120313C100932EC10BF2
:100D2800922E962E30300A128A15B3270A128A118B
:100D3800083083120313C100C10BA02E30300A12F1
:100D48008A15B3270A128A1138300A128A15B3276E
:100D58000A128A110C300A128A15B3270A128A114C
:100D680001300A128A15B3270A128A1106300A12AC
:100D78008A15B3270A128A110800831603178801F7
:100D880089018316031388018312031386018801DE
:100D980083160313870187178312031387018316AA
:100DA800031389018601203085008312031385010E
:100DB80001300A128A1149270A128A1101300A12CF
:100DC8008A1108270A128A110A128A15E6270A12B6
:100DD8008A110A128A156C270A128A1107300A1218
:100DE8008A1108250A128A110A128A1532270A124C
:100DF8008A110A128A1177260A128A118B170B1781
:100E0800831603138C16080083120313C00083167D
:100E180003130F14302F831603130F088F3940382C
:100E28008F00482F831603130F088F3950388F000F
:100E3800482F831603130F088F3960388F00482F07
:100E48007030831603138F04482F831603130F087B
:100E58008F3960388F00482F831203134008BE0073
:100E6800BF013F08003A03193A2F292F3E08013ADB
:100E780003190F2F033A0319162F063A03191D2FCA
:100E88000C3A0319242F292F080083120313C000DA
:100E9800652F8316031307158312031397013F3039
:100EA80097051708F0390C389700752F8316031328
:100EB8008714831203139D011D08F0390C389D0017
:100EC800752F4008BE00BF013F08003A03196D2F77
:100ED800752F3E08013A03194D2F033A03195A2F6B
:100EE800752F03309204FF30831603139200831288
:100EF80003138C1012158C1C822F832F7F2F8C10BC
:100F0800831603130711080083120313C300C101DA
:100F1800C201A32F4108430784000A128A11B1278E
:100F28000A128A110A128A159B270A128A1101309D
:100F380083120313C1070318C20A0030C20741080D
:100F4800430784000A128A11B1270A128A11003A4B
:100F5800031DAF2FB02F8E2F080007308A0004081A
:100F6800840A82070034543445344D3450342034D4
:100F780020344C3455345834203420342034203430
:100F8800543449344D3445342034203420344434E6
:100F980049345334543400344534523452344F3481
:100FA800523400342034003483120313C300430343
:100FB800031DDF2FE02FEC2F41087F3EC2004208BF
:100FC800C40044080A128A15B3270A128A11FD2F91
:100FD80002304306031DF12FF22FFD2F4108BF3EBB
:100FE800C2004208C40044080A128A15B3270A122C
:060FF8008A1108003134EB
:101E38000434043432340A34F00070088312031373
:101E480093000800F6308312031381000B11080079
:101E580083120313BE003E0888000800F630831280
:101E6800031381000B11080083160313141C3D2F64
:101E78003E2F382F080018300A128A15B3270A1285
:101E88008A1508001C300A128A15B3270A128A1507
:101E9800080064008001840A04060319003404065B
:101EA8004E2F0A128A1538270A128A15831203132D
:101EB8001308080083160313141C632F642F692F5B
:101EC8000130F0000030F1006B2FF001F101080043
:101ED800831603131812181583160317871519305C
:101EE8008316031399009A01831203139817831614
:101EF8000313181398168312031318160800710891
:101F0800F3007008F2000310F30CF20C0310F30C4A
:101F1800F20C720883120313950070080339F2005B
:101F2800F20E17087206CF3972069700080083125E
:101F38000313C000091440080A128A152C270A1234
:101F48008A15831203138914023083120313BF0006
:101F5800BF0BAC2F000083120313891008008312F3
:101F68000313C000091040080A128A152C270A1208
:101F78008A15831203138914C73083120313BF0011
:101F8800C52FBF0BC42FC82F831203138910080055
:101F980074037504031DD12FD22FDC2F5E30F0009F
:101FA8000030F1000A128A1583270A128A15E52FD4
:101FB8001F30F0000030F1000A128A1583270A1238
:101FC8008A150800983083160313870083120313B9
:101FD80087011408F03904389400141294168316F3
:101FE800031314179413831203138C11831603130A
:081FF8008C150B178B17080074
:08400000FF3FFF3FFF3FFF3FC0
:04400E00D420FF3F7C
:00000001FF
