:060000000A128A110C280F
:10000800FE00030EF1000A08F2000A128A15762B88
:100018000A128A110F28F801F901FA0183136130D5
:1000280084006B300A128A154A210A128A11A030FC
:100038008400BB300A128A154A210A128A118301E8
:100048000A128A1127280A128A1522220A128A11EC
:100058000A128A155B210A128A117230F3000030E5
:10006800F4000A128A1564210A128A118030F300FA
:100078000030F4000A128A1564210A128A1103302A
:10008800F3000030F4000A128A1564210A128A115A
:100098000A128A11F7270A128A115230831603139B
:1000A800BB00BB0B552800000A128A155B210A12F7
:1000B8008A117230F3000030F4000A128A156421A4
:1000C8000A128A118130F3000030F4000A128A15EE
:1000D80064210A128A110030F300F4000A128A150A
:1000E80064210A128A110A128A11F7270A128A1140
:1000F800523083160313BB00BB0B802800000A1282
:100108008A155B210A128A117230F3000030F4005C
:100118000A128A1564210A128A118C30F300003001
:10012800F4000A128A1564210A128A110A128A1521
:1001380052210A128A117330F3000030F4000A12B7
:100148008A1564210A128A110030F300F4000A1299
:100158008A1585210A128A11730883160313BB00B6
:100168003B0883120313E9000A128A11F7270A12BF
:100178008A11523083160313BB00BB0BC128000041
:100188000A128A155B210A128A117230F3000030B4
:10019800F4000A128A1564210A128A118D30F300BC
:1001A8000030F4000A128A1564210A128A110A1210
:1001B8008A1552210A128A117330F3000030F400B4
:1001C8000A128A1564210A128A110030F300F40019
:1001D8000A128A1585210A128A11730883160313D5
:1001E800BB003B0883120313EA000A128A11F7279F
:1001F8000A128A11523083160313BB00BB0B022963
:1002080000000A128A155B210A128A117230F30063
:100218000030F4000A128A1564210A128A118E30FD
:10022800F3000030F4000A128A1564210A128A11B8
:100238000A128A1552210A128A117330F30000300B
:10024800F4000A128A1564210A128A110030F30098
:10025800F4000A128A1585210A128A117308831676
:100268000313BB003B0883120313E7000A128A1129
:10027800F7270A128A11523083160313BB00BB0BEF
:10028800432900000A128A155B210A128A1172306A
:10029800F3000030F4000A128A1564210A128A1148
:1002A8008F30F3000030F4000A128A1564210A1214
:1002B8008A110A128A1552210A128A117330F30020
:1002C8000030F4000A128A1564210A128A110030DB
:1002D800F300F4000A128A1585210A128A1173089C
:1002E80083160313BB003B0883120313E8000A12AA
:1002F8008A11F7270A128A11523083160313BB009A
:10030800BB0B8429000083120313690883160313A7
:10031800BB00BC01831203136A0883160313BD00D4
:10032800BE013D08BE00BD013B083D04AC003C08D1
:100338003E04AD0083120313670883160313BB0042
:10034800BC0183120313680883160313BD00BE01A2
:100358003D08BE00BD013B083D04AA003C083E0420
:10036800AB002D0883120313AE00831603132C0869
:1003780083120313AD00831603132B088312031390
:10038800B000831603132A0883120313AF000A125E
:100398008A1562250A128A118312031330088316FC
:1003A8000313A300831203132F0883160313A20059
:1003B800831203132E0883160313A1008312031359
:1003C8002D0883160313A0002008BB003B08F80083
:1003D8002008BB002108BC002208BD002308BE007D
:1003E80008300310BE0CBD0CBC0CBB0CFF3E031D3B
:1003F800F5293B08BF003F08F9002008BB00210889
:10040800BC002208BD002308BE0010300310BE0C3B
:10041800BD0CBC0CBB0CFF3E031D0A2A3B08BF00E9
:100428003F08FA002008BB002108BC002208BD00D4
:100438002308BE0018300310BE0CBD0CBC0CBB0C4E
:10044800FF3E031D1F2A3B08BF003F08831203130A
:10045800E6000A128A155B210A128A11EE30F300AF
:100468000030F4000A128A1564210A128A11F43045
:10047800F3000030F4000A128A1564210A128A1166
:100488005730F3000030F4000A128A1564210A126A
:100498008A110A128A11F7270A128A115230831612
:1004A8000313BB00BB0B562A00000A128A155B21F6
:1004B8000A128A11EE30F3000030F4000A128A158D
:1004C80064210A128A11F530F3000030F4000A1290
:1004D8008A1564210A128A119030F3000030F40062
:1004E8000A128A1564210A128A110A128A11F72738
:1004F8000A128A11523083160313BB00BB0B822ADF
:1005080000000A128A155B210A128A11EE30F300E4
:100518000030F4000A128A1564210A128A11FA308E
:10052800F3000030F4000A128A1564210A128A11B5
:100538000A128A1552210A128A11EF30F30000308C
:10054800F4000A128A1564210A128A110030F30095
:10055800F4000A128A1585210A128A117308831673
:100568000313BB003B08BA000030F300F4000A1282
:100578008A1585210A128A110A128A11F7270A1286
:100588008A11523083160313BB00BB0BC92A000023
:100598000A128A155B210A128A11EE30F300003024
:1005A800F4000A128A1564210A128A11FB30F3003A
:1005B8000030F4000A128A1564210A128A110A12FC
:1005C8008A1552210A128A11EF30F3000030F40024
:1005D8000A128A1564210A128A110030F300F40005
:1005E8000A128A1585210A128A11730883160313C1
:1005F800BB003B08B9000030F300F4000A128A156A
:1006080085210A128A110A128A11F7270A128A11F9
:10061800523083160313BB00BB0B102B00000A12C9
:100628008A155B210A128A11EE30F3000030F400BB
:100638000A128A1564210A128A11FC30F30000306C
:10064800F4000A128A1564210A128A110A128A15FC
:1006580052210A128A11EF30F3000030F4000A1216
:100668008A1564210A128A110030F300F4000A1274
:100678008A1585210A128A11730883160313BB0091
:100688003B08B8000030F300F4000A128A158521EF
:100698000A128A110A128A11F7270A128A1152308D
:1006A80083160313BB00BB0B572B000083160313E1
:1006B8003A08BB00BC01BD01BE013E08831203130A
:1006C800E400831603133D0883120313E300831623
:1006D80003133C0883120313E200831603133B0839
:1006E80083120313E100831603133908BB00BC010E
:1006F800BD01BE0183120313610883160313BF00F3
:1007080083120313620883160313C00083120313B2
:10071800630883160313C100831203136408831646
:100728000313C20008300310BF0DC00DC10DC20D68
:10073800FF3E031D972B3F08BB044008BC0441083B
:10074800BD044208BE043E0883120313E400831666
:1007580003133D0883120313E300831603133C08B5
:1007680083120313E200831603133B088312031357
:10077800E100831603133808BB00BC01BD01BE01AC
:1007880083120313610883160313BF008312031334
:10079800620883160313C0008312031363088316C9
:1007A8000313C10083120313640883160313C200E2
:1007B80008300310BF0DC00DC10DC20DFF3E031D53
:1007C800DD2B3F08BB044008BC044108BD044208B7
:1007D800BE043E0883120313E400831603133D0886
:1007E80083120313E300831603133C0883120313D5
:1007F800E200831603133B0883120313E100610828
:1008080083160313BB0083120313620883160313B2
:10081800BC0083120313630883160313BD008312FD
:100828000313640883160313BE0004300310BE0CC0
:10083800BD0CBC0CBB0CFF3E031D1A2C3E088312DA
:100848000313E400831603133D0883120313E30024
:10085800831603133C0883120313E2008316031361
:100868003B0883120313E100610886000A128A1507
:100878005B210A128A11EE30F3000030F4000A12EC
:100888008A1564210A128A118930F3000030F400B5
:100898000A128A1564210A128A110A128A1552212B
:1008A8000A128A11EF30F3000030F4000A128A1598
:1008B80064210A128A110030F300F4000A128A1522
:1008C80085210A128A11730883160313BB003B089B
:1008D800B7000030F300F4000A128A1585210A12C5
:1008E8008A110A128A11F7270A128A1152308316BE
:1008F8000313BB00BB0B7E2C00000A128A155B2178
:100908000A128A11EE30F3000030F4000A128A1538
:1009180064210A128A118830F3000030F4000A12A8
:100928008A1564210A128A110A128A1552210A129A
:100938008A11EF30F3000030F4000A128A1564219E
:100948000A128A110030F300F4000A128A15852170
:100958000A128A11730883160313BB003B08B600FA
:100968000030F300F4000A128A1585210A128A1150
:100978000A128A11F7270A128A11523083160313B2
:10098800BB00BB0BC52C0000831603133708BB0044
:10099800BC013B08A8003C08A9003608BB00BC0104
:1009A8002808BE00BD013B083D04A8003C083E04E1
:1009B800A9000A128A155B210A128A11EE30F30087
:1009C8000030F4000A128A1564210A128A118B3049
:1009D800F3000030F4000A128A1564210A128A1101
:1009E8000A128A1552210A128A11EF30F3000030D8
:1009F800F4000A128A1564210A128A110030F300E1
:100A0800F4000A128A1585210A128A1173088316BE
:100A18000313BB003B08B5000030F300F4000A12D2
:100A28008A1585210A128A110A128A11F7270A12D1
:100A38008A11523083160313BB00BB0B212D000013
:100A48000A128A155B210A128A11EE30F30000306F
:100A5800F4000A128A1564210A128A118A30F300F6
:100A68000030F4000A128A1564210A128A110A1247
:100A78008A1552210A128A11EF30F3000030F4006F
:100A88000A128A1564210A128A110030F300F40050
:100A98000A128A1585210A128A117308831603130C
:100AA800BB003B08B4000030F300F4000A128A15BA
:100AB80085210A128A110A128A11F7270A128A1145
:100AC800523083160313BB00BB0B682D000083163E
:100AD80003133508BB00BC013B08A6003C08A7006F
:100AE8003408BB00BC012608BE00BD013B083D041C
:100AF800A6003C083E04A7000A128A155B210A12C8
:100B08008A11EE30F3000030F4000A128A156421CD
:100B18000A128A118D30F3000030F4000A128A1587
:100B280064210A128A110A128A1552210A128A119C
:100B3800EF30F3000030F4000A128A1564210A121B
:100B48008A110030F300F4000A128A1585210A126E
:100B58008A11730883160313BB003B08B3000030E7
:100B6800F300F4000A128A1585210A128A110A1262
:100B78008A11F7270A128A11523083160313BB0011
:100B8800BB0BC42D00000A128A155B210A128A11B8
:100B9800EE30F3000030F4000A128A1564210A12BC
:100BA8008A118C30F3000030F4000A128A1564218F
:100BB8000A128A110A128A1552210A128A11EF3072
:100BC800F3000030F4000A128A1564210A128A110F
:100BD8000030F300F4000A128A1585210A128A11DE
:100BE800730883160313BB003B08B2000030F30000
:100BF800F4000A128A1585210A128A110A128A112A
:100C0800F7270A128A11523083160313BB00BB0B55
:100C18000B2E0000831603133308BB00BC013B08EE
:100C2800A4003C08A5003208BB00BC012408BE0093
:100C3800BD013B083D04A4003C083E04A500643007
:100C480083120313D8000030D90083160313250834
:100C580083120313B10083160313240883120313AA
:100C6800B00083160313270883120313AF008316FB
:100C78000313260883120313AE00831603132908EF
:100C880083120313AD00831603132808831203137A
:100C9800AC006408AB006308AA006208A9006108F8
:100CA800A8000A128A15E4230A128A118312031370
:100CB8002908DB002808DA000A128A150D230A120F
:100CC8008A1183120313580883160313BB003B08C9
:100CD800B1000A128A155B210A128A11D030F3007A
:100CE8000030F4000A128A1564210A128A110030B1
:100CF800F300F4000A128A1564210A128A1152308C
:100D080083160313BB00BB0B872E00000A128A153B
:100D180052210A128A11D130F3000030F4000A126D
:100D28008A1564210A128A110030F300F4000A12AD
:100D38008A1585210A128A11730883160313BB00CA
:100D48003B08B0000A128A11F7270A128A1152309A
:100D580083160313BB00BB0BAF2E00000A128A15C3
:100D68005B210A128A11D030F3000030F4000A1215
:100D78008A1564210A128A110130F3000030F40048
:100D88000A128A1564210A128A1152308316031333
:100D9800BB00BB0BCD2E00000A128A1552210A1285
:100DA8008A11D130F3000030F4000A128A15642148
:100DB8000A128A110030F300F4000A128A158521FC
:100DC8000A128A11730883160313BB003B08AF008D
:100DD8000A128A11F7270A128A115230831603134E
:100DE800BB00BB0BF52E00000A128A155B210A1204
:100DF8008A11D030F3000030F4000A128A156421F9
:100E08000A128A110230F3000030F4000A128A151F
:100E180064210A128A11523083160313BB00BB0BDC
:100E2800132F00000A128A1552210A128A11D13092
:100E3800F3000030F4000A128A1564210A128A119C
:100E48000030F300F4000A128A1585210A128A116B
:100E5800730883160313BB003B08AE000A128A11FD
:100E6800F7270A128A11523083160313BB00BB0BF3
:100E78003B2F0000831203136503031D442F452FE6
:100E8800482F660899002C2802306506031D4D2F4F
:100E98004E2F512F7A0899002C2803306506031D20
:100EA800562F572F5A2F790899002C280430650699
:100EB800031D5F2F602F632F780899002C280530B9
:100EC8006506031D682F692F702F831603133108D9
:100ED8008312031399002C2806306506031D752F0D
:100EE800762F7D2F8316031330088312031399007E
:100EF8002C2807306506031D822F832F8A2F83161F
:100F080003132F088312031399002C280830650651
:100F1800031D8F2F902F972F831603132E088312EC
:100F2800031399002C282C280A128A110C28F50082
:100F38008B1683160313811181120112C72F011119
:100F480081100110E92F011181100114E92F0111FD
:100F580081140110E92F011181140114E92F0115E1
:100F680081100110E92F011581100114E92F0115D5
:100F780081140110E92F011581140114E92F0115BD
:100F880081140114E92F7508F300F4017408003A7C
:100F98000319CF2FC32F7308003A0319A32F013A5F
:100FA8000319A72F033A0319AB2F013A0319AF2FDF
:100FB800073A0319B32F013A0319B72F033A031954
:100FC800BB2F013A0319BF2FC32F08008316031341
:100FD8001419EF2FF02FEA2F11081F39031DF52FD1
:100FE800F62FEA2F08000A128A11EA270A128A1134
:080FF800831603131115080014
:10127C000C308312031381000B1108000C30831205
:10128C00031381000B11080064008001840A04061A
:10129C000319003404064B290A128A11EA270A1290
:1012AC008A1583160313911408000A128A11EA276F
:1012BC000A128A1583160313111408000A128A11D4
:1012CC00EA270A128A157308831203139300080085
:1012DC008316031318121815831603178715193064
:1012EC008316031399009A0183120313981783161C
:1012FC0003131813981683120313181608000A12F6
:10130C008A11EA270A128A158316031391150A12F9
:10131C008A11EA270A128A15831203131308F5009F
:10132C00F6017508A0007608A1000A128A11EA27B6
:10133C000A128A1573037404031DA529A629AA2968
:10134C00831603139112AD298316031391161116EC
:10135C00831203132108F4002008F3000800F500A1
:10136C00831603130F14D1290F088F3940388F00BF
:10137C00E7290F088F3950388F00E7290F088F396C
:10138C0060388F00E72970308F04E7290F088F39F8
:10139C0060388F00E7297508F300F4017408003AEF
:1013AC000319D929CC297308013A0319BA29033A2C
:1013BC000319BF29063A0319C4290C3A0319C92980
:1013CC00CC290800283083120313940083160313CE
:1013DC009101831203132D08F4002E08F5002F0839
:1013EC00F6003008F70002300310F40DF50DF60D81
:1013FC00F70DFF3E031DFA297708A3007608A2001B
:10140C007508A1007408A0000030A7007A30A6006F
:10141C001230A5000030A4000A128A15A5220A1267
:10142C008A15831203132008FF3E831603139300BF
:10143C009401871507160800831603178801890184
:10144C008316031386018801831203138601880116
:10145C00870183160313871701300A128A15B521E9
:10146C000A128A15003083120313B0000230AF0049
:10147C004930AE00F030AD000A128A15E8210A128C
:10148C008A150A128A156E210A128A1507300A1259
:10149C008A119B270A128A150A128A1544210A12EC
:1014AC008A158B170B17831603138C160800003044
:1014BC00F7000030F6000030F5000030F400831225
:1014CC000313201C6A2A6B2A822A2408F407250895
:1014DC0003110318013E0319742AF507260803119A
:1014EC000318013E03197B2AF6072708031103187A
:1014FC00013E0319822AF7070130F3000310A40DF3
:10150C00A50DA60DA70DF30B842A01300310A30C17
:10151C00A20CA10CA00CFF3E031D8C2A2308220454
:10152C0021042004031D9B2A9C2A652A7708A3000A
:10153C007608A2007508A1007408A000080000300D
:10154C0083120313AB000030AA000030A900003056
:10155C00A80023082204210420040319B62AB72A60
:10156C00042BAC01AC0AC72A0130F3000310A00D08
:10157C00A10DA20DA30DF30BBC2A0130F3007308CF
:10158C00AC07A31FCA2ACB2ABA2A0130F3000310D6
:10159C00A80DA90DAA0DAB0DF30BCD2A230827021C
:1015AC00031DE22A22082602031DE22A2108250235
:1015BC00031DE22A20082402031CE52AE62AF52A48
:1015CC002008A4022108031C210FA5022208031CD9
:1015DC00220FA6022308031C230FA7022814013094
:1015EC000310A30CA20CA10CA00CFF3E031DF62AA9
:1015FC000130AC02031D032B042BCB2A2B08A300B8
:10160C002A08A2002908A1002808A00008008312BB
:10161C000313DE01D91F132B142B1B2BD809D9094B
:10162C00D80A0319D90ADE01DE0ADB1F1E2B1F2B79
:10163C00282BDA09DB09DA0A0319DB0A0130DC0092
:10164C005C08DE06DF01E0015808590403192F2B52
:10165C00302B672BDD01DD0A3E2B01300310D80D3A
:10166C00D90DFF3E031D342B0130DC005C08DD0777
:10167C00D91F412B422B332B01300310DF0DE00D12
:10168C00FF3E031D432B59085B02031D4F2B5808CB
:10169C005A02031C522B532B5A2B5808DA025908A6
:1016AC00031CDB03DB025F1401300310D90CD80CD4
:1016BC00FF3E031D5B2B0130DD02031D662B672BE8
:1016CC00422B5E0803196B2B6C2B712BDF09E00985
:1016DC00DF0A0319E00A6008D9005F08D800080087
:1016EC000B1D792B7A2B7F2B0A128A153E210A129D
:1016FC008A15831203138C1E842B852BDD2B1A0861
:10170C00860031301A06031D8C2B8D2B902BE50196
:10171C00E50ADD2B32301A06031D952B962B9B2BDD
:10172C000230F0007008E500DD2B33301A06031D83
:10173C00A02BA12BA62B0330F0007008E500DD2BAD
:10174C0034301A06031DAB2BAC2BB12B0430F0003C
:10175C007008E500DD2B35301A06031DB62BB72BB0
:10176C00BC2B0530F0007008E500DD2B36301A0676
:10177C00031DC12BC22BC72B0630F0007008E500EF
:10178C00DD2B37301A06031DCC2BCD2BD22B07307B
:10179C00F0007008E500DD2B38301A06031DD72B3E
:1017AC00D82BDD2B0830F0007008E500DD2B72081B
:1017BC008A00710E8300FE0E7E0E09008312031345
:1017CC002C08B2002D08B300B401B5010130031090
:1017DC00B20DB30DB40DB50DFF3E031DED2B280856
:1017EC00B6002908B7002A08B8002B08B900033046
:1017FC000310B90CB80CB70CB60CFF3E031DFE2B36
:10180C003208B6023308031C330F0D2C0E2CB70212
:10181C003408031C340F132C142CB8023508031C89
:10182C00350F192C1A2CB9023908A3003808A2005C
:10183C003708A1003608A0002E08A4002F08A50028
:10184C00A601A7010A128A155D220A128A158312B3
:10185C0003132008BA002108BB002208BC0023088F
:10186C00BD000B300310BD0CBC0CBB0CBA0CFF3E06
:10187C00031D382C3D08C9003C08C8003B08C700B4
:10188C003A08C6002C08B2002D08B300B401B5010B
:10189C002808B6002908B7002A08B8002B08B90098
:1018AC0004300310B90CB80CB70CB60CFF3E031D7A
:1018BC00572C3208B6023308031C330F662C672CE6
:1018CC00B7023408031C340F6C2C6D2CB80235088D
:1018DC00031C350F722C732CB9023908A700380879
:1018EC00A6003708A5003608A4002C08BA002D085D
:1018FC00BB00BC01BD012808BE002908BF002A0896
:10190C00C0002B08C10004300310C10CC00CBF0C6C
:10191C00BE0CFF3E031D8A2C3A08BE023B08031C7A
:10192C003B0F992C9A2CBF023C08031C3C0F9F2C9C
:10193C00A02CC0023D08031C3D0FA52CA62CC102F7
:10194C004108A3004008A2003F08A1003E08A000E7
:10195C000A128A155D220A128A15831203132008B3
:10196C00C2002108C3002208C4002308C5000C30A3
:10197C000310C50CC40CC30CC20CFF3E031DBE2CC3
:10198C004508D5004408D4004308D3004208D200CF
:10199C005508A3005408A2005308A1005208A00047
:1019AC003008A4003108A500A601A7010A128A1567
:1019BC005D220A128A15831203132008B200210833
:1019CC00B3002208B4002308B5000E300310B50C88
:1019DC00B40CB30CB20CFF3E031DEC2C3508CD003F
:1019EC003408CC003308CB003208CA0046084A073A
:1019FC00B2000030031801304707B4010318B40AD1
:101A0C004B07B3000318B40A48083407B501031890
:101A1C00B50A4C07B4000318B50A490835074D0739
:101A2C00B5003508D1003408D0003308CF00320897
:101A3C00CE008030B2000030B3000030B400003073
:101A4C00B5005108A3005008A2004F08A1004E0891
:101A5C00A0000030A7000030A6000030A500053023
:101A6C00A4000A128A155D220A128A158312031326
:101A7C002008B20721080318210F452D462DB30766
:101A8C0022080318220F4B2D4C2DB40723080318E2
:101A9C00230AB50708300310B50CB40CB30CB20C08
:101AAC00FF3E031D512D3308D7003208D6005708CE
:101ABC00A9005608A80008001330831203132E0245
:101ACC00253003192D0203186C2D6D2D762D133036
:101ADC003002253003192F02031C752D762D7F2D16
:101AEC000030B0000030AF00FF30AE00FF30AD0072
:101AFC00FF2F0030C8000030C7007530C60017300B
:101B0C00C5004508B1004608B2004708B3004808B4
:101B1C00B40004300310B10DB20DB30DB40DFF3E83
:101B2C00031D902D3408C8003308C7003208C600C6
:101B3C003108C5002D08A0002E08A100A201A301A8
:101B4C004808A7004708A6004608A5004508A400B9
:101B5C000A128A155D220A128A15831203132008B1
:101B6C00B1002108B2002208B3002308B4000A30E7
:101B7C000310B40CB30CB20CB10CFF3E031DBE2D04
:101B8C003408D0003308CF003208CE003108CD0025
:101B9C002F08A0003008A100A201A3014808A7004B
:101BAC004708A6004608A5004508A4000A128A1595
:101BBC005D220A128A15831203132008B100210832
:101BCC00B2002208B3002308B4000A300310B40C8E
:101BDC00B30CB20CB10CFF3E031DEC2D3408CC0041
:101BEC003308CB003208CA003108C9000030BC00F1
:101BFC000030BB000030BA000030B90050084F0470
:101C0C004E044D0403190B2E0C2E3C2E5008A30031
:101C1C004F08A2004E08A1004D08A0004908B100D1
:101C2C004A08B2004B08B3004C08B4000A30031049
:101C3C00B10DB20DB30DB40DFF3E031D1D2E3408B6
:101C4C00A7003308A6003208A5003108A4000A1228
:101C5C008A15A5220A128A15831203132308BC00C5
:101C6C002208BB002108BA002008B9000130B100DD
:101C7C000030B2000030B3000030B4003908B107B6
:101C8C003A0803183A0F4B2E4C2EB2073B08031898
:101C9C003B0F512E522EB3073C0803183C0AB407D5
:101CAC0001300310B40CB30CB20CB10CFF3E031D8D
:101CBC00572E3408D4003308D3003208D200310830
:101CCC00D1005408031D772E5308031D772E52089C
:101CDC00031D772E41305102031D742E0318772EED
:101CEC00782E832EF23083120313C1000130C20010
:101CFC00BE30C3000130C400562F831203135408A6
:101D0C00031D952E5308031D952E5208031D952E69
:101D1C0081305102031D922E0318952E962EA12E62
:101D2C00143083120313C1000230C200D130C3003F
:101D3C000230C400562F831203135408031DB32E14
:101D4C005308031DB32E5208031DB32EC13051028C
:101D5C00031DB02E0318B32EB42EBF2E3F308312AA
:101D6C000313C1000230C2007B30C3000330C40037
:101D7C00562F831203135408031DD22E5308031D30
:101D8C00D22E01305202031DCF2E01305102031D01
:101D9C00CF2E0318D22ED32EDE2E703083120313C7
:101DAC00C1000230C200FE30C3000330C400562F05
:101DBC00831203135408031DF12E5308031DF12E37
:101DCC0001305202031DEE2E39305102031DEE2E4E
:101DDC000318F12EF22EFD2E6F3083120313C10067
:101DEC000130C200FC30C3000130C400562F8312F6
:101DFC0003135408031D102F5308031D102F01301B
:101E0C005202031D0D2F9B305102031D0D2F031881
:101E1C00102F112F1C2FD23083120313C10000304E
:101E2C00C200FB30C3000030C400562F83120313D2
:101E3C005408031D2F2F5308031D2F2F023052025D
:101E4C00031D2C2F9B305102031D2C2F03182F2FF9
:101E5C00302F3B2F183083120313C1000030C20007
:101E6C001230C3000030C400562F831203135408E1
:101E7C00031D4F2F5308031D4F2F02305202031D19
:101E8C004B2F9B305102031D4B2F031C4E2F4F2FFA
:101E9C00562F83120313C101C201C301C401562F73
:101EAC00831203134108A0004208A100A201A30160
:101EBC005008A7004F08A6004E08A5004D08A40026
:101ECC000A128A155D220A128A158312031323083B
:101EDC00D0002208CF002108CE002008CD004308F6
:101EEC00A0004408A100A201A3014C08A7004B08C4
:101EFC00A6004A08A5004908A4000A128A155D220A
:101F0C000A128A15831203132308CC002208CB0073
:101F1C002108CA002008C9000030C0000030BF00F2
:101F2C000030BE000030BD0050084C02031DA82F2D
:101F3C004F084B02031DA82F4E084A02031DA82F61
:101F4C004D0849020318AB2FAC2FD02F4D08B10010
:101F5C004E08B2004F08B3005008B4004908B10253
:101F6C004A08031C4A0FBB2FBC2FB2024B08031CA0
:101F7C004B0FC12FC22FB3024C08031C4C0FC72FA1
:101F8C00C82FB4023408C0003308BF003208BE00AA
:101F9C003108BD000030BD07203003182130BE07CA
:101FAC00003003180130BF07003003180130C007A0
:101FBC003D08B1003E08B2003F08B3004008B40031
:101FCC000E300310B40CB30CB20CB10CFF3E031D5D
:101FDC00E72F3408B8003308B7003208B6003108D0
:101FEC00B5003808B0003708AF003608AE00350829
:041FFC00AD0008002C
:08400000FF3FFF3FFF3FFF3FC0
:04400E00D420FF3F7C
:00000001FF
